:1000000009C016C015C03CC013C012C012C021C028
:100010000FC00EC011241FBECFE9CDBF20E0A0E667
:10002000B0E001C01D92AA36B207E1F7DDD0C3C12E
:10003000E7CF1F920F920FB60F9211248F9386B7BE
:100040008A3F08F4C49A8F910F900FBE0F901F90B3
:1000500018951F920F920FB60F9211248F939F93B2
:10006000809160009091610001969093610080936F
:1000700060009F918F910F900FBE0F901F90189569
:100080001F920F920FB60F9211248F9386B78B3069
:1000900008F0C4988F910F900FBE0F901F90189585
:1000A00029D086E436D081E034D02BD087E691E0A9
:1000B0000197F1F700C000001DD086E42AD080E14E
:1000C00028D01FD08FE191E00197F1F700C0000028
:1000D0000895CF93DF930ED087E41BD064D0C82F50
:1000E000D0E0DC2FCC2771D0C82B0BD0CE01DF9114
:1000F000CF910895B99AB89AC09AC19AC198C098F8
:100100000895B99AB89AC098C198C09AC19AB998F6
:100110000895B99AB89A20E030E090E0AC01022E40
:1001200001C0440F0A94EAF747FF02C0C19A01C018
:10013000C198C09A42E04A95F1F700C0C0982F5F7D
:100140003F4F2830310551F7C19AB998C09A82E0E3
:100150008A95F1F700C0C09842E04A95F1F700C0D7
:10016000B99A0895C19AB998C19AB89A27E030E02F
:1001700080E0C09A92E09A95F1F700C096B391FBA7
:10018000442740F950E0BA01022E01C0660F0A94DC
:10019000EAF7862BC09892E09A95F1F700C02150BB
:1001A000310938F70895DEDFB99AC198C09A92E014
:1001B0009A95F1F700C0C098C19AB998B8989DE097
:1001C0009A95F1F70000B89A0895CCDFC09A92E0B2
:1001D0009A95F1F700C0C098B998B8989DE09A95A3
:1001E000F1F70000B89A0895BC9A81E287B987EECA
:1001F00086B91FBC82E083BF8EE089BF85E089BDE0
:1002000078942FEF4BED85E0215040408040E1F79E
:1002100000C0000045DFC1E0D3E012E05ADF9C01DE
:1002200080916400909165006FE170E0B3D0820F1F
:10023000931F9C0185E0369527958A95E1F73093C9
:1002400065002093640045B1809168009091690039
:100250006FE070E09FD081509F4F841B910944E074
:10026000969587954A95E1F7909369008093680089
:1002700080916000909161008D32914068F0109201
:10028000610010926000809162009091630001967D
:10029000909363008093620026393105E8F48091E1
:1002A0006600882311F08330B9F410926100109237
:1002B000600080916700853028F4109263001092EE
:1002C000620005C090E09093630080936200C09349
:1002D000660089B7846089BF809164009091650051
:1002E000893C9105F8F08091660081508230D0F40D
:1002F0001092610010926000209167008091680068
:1003000090916900821B91098530910528F4109223
:1003100063001092620004C09093630080936200B7
:10032000D093660080916600813069F028F08230B9
:10033000C1F08330C9F029C089B78B7F89BFC498C9
:100340001092670022C0809162009091630020911A
:100350006800309169008217930790F0109366004F
:1003600014C0809168000CC020916200309163003D
:1003700080916800909169002817390720F4821B4A
:100380008093670002C0109266008091670080959C
:1003900086BF44CF0024552704C0080E591F880F7C
:1003A000991F009729F076956795B8F37105B9F70D
:0A03B000802D952F0895F894FFCFDB
:00000001FF
